:020000040800F2
:10000000302F002089010008B9040008B504000859
:10001000B70400088D0200089909000800000000DC
:10002000000000000000000000000000F5050008CE
:10003000F70300080000000031050008F70500087C
:10004000A3010008A3010008A3010008A301000800
:10005000A3010008A3010008A3010008A3010008F0
:10006000A3010008A3010008A3010008A3010008E0
:10007000A301000801900008A3010008A3010008E3
:10008000A3010008A3010008A3010008A3010008C0
:10009000A3010008A3010008A3010008A3010008B0
:1000A000A3010008A3010008A3010008559100085E
:1000B00079910008A3010008A3010008A30100082A
:1000C000A3010008A3010008A3010008A301000880
:1000D000A3010008A3010008A3010008A301000870
:1000E000A3010008A3010008A301000800F002F822
:1000F00000F03AF80AA090E8000C82448344AAF188
:100100000107DA4501D100F02FF8AFF2090EBAE885
:100110000F0013F0010F18BFFB1A43F0010318473B
:100120001411000034110000103A24BF78C878C1BF
:10013000FAD8520724BF30C830C144BF04680C60ED
:10014000704700000023002400250026103A28BF35
:1001500078C1FBD8520728BF30C148BF0B60704739
:100160001FB51FBD10B510BD00F058F81146FFF7C0
:10017000F7FF00F039FE00F076F803B4FFF7F2FF66
:1001800003BC00F07DF8000009488047094800479B
:10019000FEE7FEE7FEE7FEE7FEE7FEE7FEE7FEE737
:1001A000FEE7FEE704480549054A064B7047000094
:1001B000FD050008ED00000830290020302F002048
:1001C000302B0020302B00204FF0000200B51346EA
:1001D00094469646203922BFA0E80C50A0E80C5067
:1001E000B1F12001BFF4F7AF090728BFA0E80C5018
:1001F00048BF0CC05DF804EB890028BF40F8042B11
:1002000008BF704748BF20F8022B11F0804F18BF7D
:1002100000F8012B7047704770477047754600F033
:1002200029F8AE4605006946534620F0070085468A
:1002300018B020B5FFF7B6FFBDE820404FF000062C
:100240004FF000074FF000084FF0000B21F00701BE
:10025000AC46ACE8C009ACE8C009ACE8C009ACE801
:10026000C0098D4670470446AFF300802046FFF773
:1002700084FF000000487047CC2800207047000031
:1002800001491820ABBEFEE726000200FEE7000091
:1002900001684FF6FE72114001600021016041606B
:1002A0008160C1602E4A2F49904204BF486840F0E7
:1002B0000F0022D02C4A904204BF486840F0F00062
:1002C0001BD02A4A904204BF486840F4706014D0A2
:1002D000274A904204BF486840F470400DD0254A38
:1002E000904204BF486840F4702006D0224A9042F1
:1002F00004BF486840F4700001D1486070471F4A4D
:10030000904204D1486840F07060486070471C4AD1
:10031000111F904204BF086840F00F0014D0194A22
:10032000904204BF086840F0F0000DD0164A904299
:1003300004BF086840F4706006D0144A904204BFBD
:10034000086840F4704001D108607047104A90423C
:1003500018BF7047086840F47020086070470000BC
:1003600008000240000002401C0002403000024031
:1003700044000240580002406C00024080000240ED
:10038000080402401C0402403004024044040240BD
:1003900058040240002A026814BF114322EA0101F6
:1003A0000160704710B40268D1F820C08B686FF309
:1003B0000E1243EA0C03D1E904C44CEA040C43EAEC
:1003C0000C03D1F818C043EA0C03D1F81CC043EA6F
:1003D0000C03D1F824C043EA0C03D1F828C043EA47
:1003E0000C031A430260CA6842600A688260496866
:1003F000C16010BC704770472DE9F003CB7803F063
:100400000F0213F0100F1CBF8B781A430B784FF0BC
:100410000F0713F0FF0F4FF001081FD004680023EF
:100420005FF008050E8808FA03FC3CEA060611D1C5
:100430009E0007FA06F924EA090402FA06F6344394
:10044000CE78282E08BFC0F814C003D0482E08BFAD
:10045000C0F810C05B1C6D1EE4D104600B88FF2B3C
:100460009CBFBDE8F003704744684FF0000C0825BE
:100470000CF108030E8808FA03F333EA060607D0E6
:100480006D1E0CF1010CF3D14460BDE8F003704720
:100490004FEA8C0607FA06F924EA090402FA06F67E
:1004A0003443CE78282E08BF4361CE78482E08BF4B
:1004B0000361E5E7FEE7FEE77047000010B4C2788D
:1004C00001784FF00F0C012322B3184A126801F192
:1004D000E02102F4E062C2F5E062120AC2F1040413
:1004E0002CFA02F290F801C00CFA04FC8478224045
:1004F00042EA0C02120181F80024007800F01F018A
:1005000003FA01F14009800000F1E020C0F8001179
:1005100010BC704701F01F0003FA00F04909890080
:1005200001F1E021C1F8800110BC70470CED00E042
:1005300070470000044A0029516914BF084321EAAA
:10054000000050617047000000100240044A00297A
:10055000D16914BF084321EA0000D0617047000050
:1005600000100240044A0029916914BF084321EA9F
:1005700000009061704700000010024000290188CF
:1005800014BF41F4005121F400510180704700294B
:10059000018814BF41F0400121F040010180704703
:1005A00010B402880B88B1F802C0CC8843EA0C036F
:1005B000B1F804C002F441524CEA040C43EA0C03C3
:1005C000B1F808C043EA0C03B1F80AC043EA0C03CF
:1005D000B1F80CC043EA0C03B1F80EC043EA0C03B7
:1005E0001A430280828B22F400628283098A01828C
:1005F00010BC7047704700F05FBC0000374882B005
:10060000016841F0010101604168354A11404160D3
:10061000016821F4102121F080710160016821F44A
:1006200080210160416821F4FE0141604FF41F0107
:100630008160002201920092016841F480310160E2
:10064000016801F4003100910199491C0191009960
:1006500019B90199B1F5A06FF2D1016811F4003F09
:1006600008BF009233D0012100911E490A6842F070
:1006700010020A600A6822F003020A600A6842F067
:1006800002020A604168416041684160416841F48A
:1006900080614160416821F47C114160416841F40E
:1006A000E8114160016841F080710160016811F05A
:1006B000007FFBD0416821F003014160416841F0B7
:1006C00002014160416801F00C010829FAD1064994
:1006D0004FF00060086002B0704700000010024058
:1006E0000000FFF80020024008ED00E0002901882A
:1006F00014BF41F0010121F0010101807047002980
:10070000B0F8441014BF41F40041C1F30E01A0F849
:1007100044107047002A828914BF114322EA010164
:100720008181704710B4028C22F001020284028C95
:100730008388B0F818C00C882CF0730C44EA0C0CB9
:100740000C8922F0020222434C882243A0F180440B
:10075000B4F596341CBFA0F18044B4F59A340DD0A2
:10076000A0F18044B4F5A0341FBFA0F18044B4F5DB
:10077000A234A0F18044B4F5A4340DD14C8922F008
:10078000080222438C8822F0040222438C8923F43D
:1007900040732343CC8923438380A0F818C0C988C1
:1007A0008186028410BC704730B4028C22F01002A3
:1007B0000284038CB0F804C0028B0D8822F4E64456
:1007C0004FF6FF7202EA05252C430D8923F0200322
:1007D00002EA05152B434D8802EA05152B43A0F1CB
:1007E0008045B5F596351CBFA0F18045B5F59A3525
:1007F00017D14D8923F0800302EA05152B438D881C
:1008000023F0400302EA05152B438D892CF4406C3C
:1008100002EA850545EA0C0CCD8902EA850242EA26
:100820000C0CA0F804C00483C9880187038430BC81
:10083000704730B4028C22F480720284028C838868
:10084000B0F81CC00C882CF0730C44EA0C0422F4A1
:10085000007C0D894FF6FF7202EA052545EA0C0C73
:100860004D8802EA052545EA0C0CA0F18045B5F556
:1008700096351CBFA0F18045B5F59A3517D14D8945
:100880002CF4006C02EA052545EA0C0C8D882CF44A
:10089000806C02EA052545EA0C0C8D8923F440534F
:1008A00002EA05152B43CD8902EA05121343838022
:1008B0008483C9888187A0F820C030BC7047028932
:1008C00022F07002114301817047028922F08002F8
:1008D00002810289114301817047828822F07002EF
:1008E00082808288114381807047028922F007024A
:1008F00002810289114301817047000010B402880F
:10090000234BDFF890C0984218BF604511D0B0F17A
:10091000804F1CBFA0F18044B4F5806409D0A0F1E1
:100920008044B4F500641CBFA0F18044B4F5406479
:1009300003D14C8822F070022243A0F18044B4F528
:1009400080541CBFA0F18044B4F5A05403D0CC88DF
:1009500022F44072224302808A8882850A880285B6
:10096000984218BF60450DD0A0F18042B2F5A03288
:100970001FBFA0F18042B2F5A232A0F18042B2F5D1
:10098000A43201D1097A01860121818210BC70470D
:10099000002C014000340140FEE700002DE9F04F3B
:1009A00082B0DDF8348028B104882144448809B23B
:1009B000224412B24FEAD309B3EBC90F88BF09F141
:1009C0000109CC080194A1EBC40448B1B0F90400BA
:1009D000CD184618B542A8BF401A08DB83B207E01D
:1009E000C818B0F5C87FA8BFC1F5C870F6DA9BB2C9
:1009F0000B9800260028C7BFC4F10700009002B082
:100A0000BDE8F08FB018C728C4BF02B0BDE8F08FB2
:100A1000911901EB8104019804EBC10100EB810005
:100A20002A49002501444C010098002B04EB80006A
:100A3000274C00F1085004EB411A0C992C4606FB98
:100A400009173BD9691C00F0E00B89B2002D08BFE3
:100A500017F801CB01F007051CF0800118BF012138
:100A6000B8F1000F13D0B8F1010F04BF90F800E007
:100A70008EEA01010BD0B8F1020F04BF90F800E03C
:100A80000EEA010103D0B8F1030F02D006E00170B5
:100A900004E090F800E04EEA01010170001F00F050
:100AA000E0018B451CBF0AF1200082464FEA4C61F1
:100AB0004FEA116C611C8CB29C42C3D3701C86B28D
:100AC0000B9886429EDB02B0BDE8F08F2C00002020
:100AD0001C0000222DE9F04F8946117883B098461A
:100AE00014464FF0000C29B112F8011F0CF1010C53
:100AF0000029F9D11FFA8CF7002F85B24FF00006BC
:100B000019BFDFF850A04FF0090B03B0BDE8F08F1C
:100B100014F8010B202816D3203800EBC00080B257
:100B20005044CDF800B0CDE9010806234A4629B269
:100B30000020FFF733FFA81D85B2B5F5C87F24BF9D
:100B400003B0BDE8F08F701C86B2BE42E0D303B0A4
:100B5000BDE8F08FD40E00082DE9F04F5C1ADDE9F6
:100B600009C826B2ACEB020427B2002EBCBF744207
:100B700026B2002FBCBF7C4227B24FF0010A8B4245
:100B8000B8BF4FF0FF3A4FF001099445B8BF4FF09E
:100B9000FF390D461446BE4292B289B2434662DD29
:100BA00000F0C6F8C6EB470001B2B81B40000FFAD0
:100BB00080FE7800002307B2002ED8BFBDE8F08F7A
:100BC0000029A3BF04EB090004B201EB0E00C81911
:100BD00001B205EB0A0005B21FFA85FCA2B2BCF512
:100BE000C87F38BFC82A38D24FEADC00ACEBC00C53
:100BF0004FF0800B2BFA0CFC5FEA080B06D0BBF120
:100C0000010F0FD0B8F1020F1AD026E002EB820BD1
:100C10000BEBC20B454A02EB8B0212F800B04BEA19
:100C20000C0C0AE002EB820B0BEBC20B3F4A02EB0F
:100C30008B0212F800B08BEA0C0C02F800C00CE03A
:100C400002EB820B0BEBC20B384A02EB8B0212F861
:100C500000B00BEA0C0C02F800C0581C03B2B342FF
:100C6000AEDBBDE8F08F00F063F8C7EB460001B2E1
:100C7000F01B40000FFA80FE7000002306B2002F28
:100C8000D8BFBDE8F08F0029A3BF05EB0A0005B26D
:100C900001EB0E00881901B204EB090004B21FFA3F
:100CA00085FCA2B2BCF5C87F38BFC82A38D24FEA4B
:100CB000DC00ACEBC00C4FF0800B2BFA0CFC5FEAB5
:100CC000080B06D0BBF1010F0FD0B8F1020F1AD0FC
:100CD00026E002EB820B0BEBC20B144A02EB8B02F9
:100CE00012F800B04BEA0C0C0AE002EB820B0BEBA3
:100CF000C20B0E4A02EB8B0212F800B08BEA0C0C0E
:100D000002F800C00CE002EB820B0BEBC20B074AAF
:100D100002EB8B0212F800B00BEA0C0C02F800C0D8
:100D2000581C03B2BB42AEDBBDE8F08F2C000020A4
:100D3000B1F5C87F34BFC82A704710B4C808A1EB0A
:100D4000C0014FF0800C2CFA01FC104902EB820428
:100D500004EBC20201EB8201002B04BF0A5C42EAF1
:100D60000C020FD0012B04BF0A5C82EA0C0209D0EE
:100D7000022B1CBF10BC70470A5C02EA0C020A542A
:100D800010BC70470A5410BC704700002C000020B3
:100D90002DE9F04182B00E46089D1C46CDE9006564
:100DA000174680461346014632460020FFF7D4FE20
:100DB0003B46224641460020CDE90045FFF7CCFEE8
:100DC0004346324619460020CDE90045FFF7C4FEF0
:100DD0003B46324619460020CDE90045FFF7BCFEF0
:100DE00002B0BDE8F0810000012182B00846FFF7A3
:100DF000A1FB012141F60D20FFF7B4FB01210846BC
:100E0000FFF7A4FB08F084FA00F036F80020C723AF
:100E100040F28F1201460090FFF7BAFF002309A2AB
:100E20002821B420FFF756FE002309A23721A12074
:100E3000FFF750FE00230AA246218C20FFF74AFE4E
:100E4000FEE700004D555345204C41420000000094
:100E50004843363530322050524F4A454354000003
:100E60004749544855422E434F4D2F575558582FF8
:100E700048433635303200000D484FF47A7100682F
:100E8000B0FBF1F0401EB0F1807F24BF002070471E
:100E900020F07F40411E4FF0E0204161054AF021E3
:100EA00082F8141D00218161072101610120704732
:100EB000180000200FE000E005480168491C0160AF
:100EC0004168002908BF70474168491E416070476A
:100ED0000C000020000000000000000000002020A6
:100EE00020202000200000505000000000000000E2
:100EF0000050F850F8500000002078A07028F02032
:100F00000000C8D02020205898000020502040A881
:100F10009870000020202000000000000020408089
:100F200080804020000020100808081020000000E9
:100F3000A870F870A8000000002020F82020000011
:100F400000000000002020400000000000700000B1
:100F50000000000000000000002000001010202011
:100F60002040400000708888A888887000006020B9
:100F700020202020700000708808708080F8000019
:100F800070880830088870000010305090F81010F9
:100F90000000F08080F00888700000304080B0C809
:100FA00088700000F8081020408080000070888859
:100FB0007088887000007088887808887000000049
:100FC0003030003030000000003030003030600041
:100FD000001020408040201000000000F800F800C1
:100FE0000000004020100810204000007088081009
:100FF00020002000007088B8A8B8807800007088B1
:101000008888F888880000F08888F08888F00000D8
:10101000708880808088700000F08888888888F0D8
:101020000000F88080F08080F80000F88080F08078
:1010300080800000708880B8888870000088888868
:10104000F888888800007020202020207000000888
:1010500008080888887000008890A0C0A0908800C8
:1010600000808080808080F8000088D8A8888888E8
:1010700088000088C8A898888888000070888888B8
:101080008888700000F08888F08080800000708878
:101090008888A890680000F08888F0A090880000F8
:1010A000708880700888700000F8202020202020A0
:1010B00000008888888888887000008888888888E8
:1010C0005020000088888888A8A870000088885070
:1010D000205088880000888888502020200000F850
:1010E0000810204080F800007040404040407000F0
:1010F0000040402020201010000070101010101030
:10110000700000205080000000000000000000007F
:101110000000F80000202010000000000000000087
:1011200070087898680000008080F08888F00000DF
:10113000000078808080780000000808788888782F
:10114000000000007088F080700000304040604077
:10115000404000000000788878087000000000001F
:10116000000000000000000000000000000000007F
:10117000000000000000000000000000000000006F
:10118000000000000000000000000000000000005F
:10119000000000000000000000000000000000004F
:1011A000000000000000000000000000000000003F
:1011B000000000000000000000000000000000002F
:1011C000000000000000000000000000000000001F
:1011D000000000000000000000000000000000000F
:1011E00000000000000000000000000000000000FF
:1011F00000000000000000000000000000000000EF
:1012000000000000000000000000000000000000DE
:1012100000000000000000000000000000000000CE
:1012200000000000000000000000000000000000BE
:101230000000000054120008000000202C000000F4
:1012400028010008801200082C000020042F000054
:101250004401000800000000000000000000000041
:1012600000000000000000000000000000A24A048E
:101270000000000000000000010203040607080946
:020000040800F2
:1090000010494FF400704860922008633420486390
:109010000D488268521C82608268032A18BF70471C
:109020000022826003885B1C03800388C82B19BF61
:10903000C86B34304260028004BF82600348C8635A
:109040007047000000000240000000202C000020BB
:109050002DE9F04393B04FF08008ADF8448018201C
:109060008DF8470002208DF8460011A93348F7F724
:10907000C3F9334D00212846F7F789FADFF8C49089
:109080004846F7F705F9314E2F48CDE90006102084
:10909000029034270024CDE90374CDE905840794B8
:1090A00008940994694648460A94F7F77BF94FF407
:1090B0004040ADF82C004FF48270ADF82E004FF018
:1090C0000108ADF834806815ADF836000820ADF819
:1090D00038000720ADF83040ADF83C00ADF8324024
:1090E000ADF83A400BA92846F7F75AFA002128466E
:1090F000F7F744FA01212846F7F749FAA88840F023
:109100000200A8800D208DF840008DF841408DF8B8
:1091100042408DF8438010A8F7F7D0F90C48016B56
:1091200021F0010101634763C66301220221484621
:10913000F7F730F913B0BDE8F083000000080140F4
:1091400000300140300002400C3001402C00002073
:10915000000002400548406810B1054993200863AB
:1091600004494FF6FB7008807047000000000020A3
:1091700000000240102C01400449012048604FF0DB
:1091800080414FF6F7700882704700000000002011
:109190002DE9F04F89B04FF48170ADF820004FF009
:1091A00018088DF8238002268DF8226008A95648F9
:1091B000F7F722F90024B002ADF81400ADF8104022
:1091C0004FF0900A4FF4B077ADF81240ADF816406A
:1091D0008DF8184004A94D48F7F790FB0420ADF82E
:1091E00004004FF07009ADF806A0ADF8009001251D
:1091F000ADF80860ADF80C404FF4807AADF802503D
:10920000ADF80A40ADF80EA069464048F7F78AFA73
:109210004FF0200BADF800B0ADF8067069463B4842
:10922000F7F7C2FA01213948F7F769FA8021374880
:10923000F7F74BFB20213548F7F74FFB052188074F
:10924000F7F753FB0021A807F7F739FB40F271202D
:10925000ADF81400ADF81040ADF81240ADF816406E
:109260008DF8184004A98007F7F748FB0420ADF8F3
:109270000400ADF80090ADF80860ADF80C40ADF812
:109280000250ADF80660ADF80A40ADF80EA0694690
:109290000007F7F789FAADF800B0ADF80680694627
:1092A000A807F7F7C6FA01218807F7F728FA1C2064
:1092B0008DF81C008DF81D508DF81E408DF81F5044
:1092C00007A8F7F7FBF808210122C806F7F722FAEA
:1092D0001B208DF81C008DF81D508DF81E408DF858
:1092E0001F5007A8F7F7EAF8012204210748F7F70B
:1092F00011FA01218807F7F7F9F901210348F7F777
:10930000F5F909B0BDE8F08F00080140002C0140DC
:1093100010B5FFF79DFEFFF73BFFBDE8104042F69A
:0C932000A0010148F6F750BF2C0000200F
:04000005080000ED02
:00000001FF
